{
  "address": "0x68B1D87F95878fE05B998F19b66F4baba5De1aed",
  "abi": [
    {
      "inputs": [
        {
          "internalType": "address",
          "name": "_oracle",
          "type": "address"
        }
      ],
      "stateMutability": "nonpayable",
      "type": "constructor"
    },
    {
      "anonymous": false,
      "inputs": [
        {
          "indexed": true,
          "internalType": "address",
          "name": "collateral",
          "type": "address"
        },
        {
          "indexed": false,
          "internalType": "uint256",
          "name": "cap",
          "type": "uint256"
        }
      ],
      "name": "CollateralCapUpdated",
      "type": "event"
    },
    {
      "anonymous": false,
      "inputs": [
        {
          "indexed": true,
          "internalType": "address",
          "name": "collateral",
          "type": "address"
        },
        {
          "indexed": false,
          "internalType": "uint256",
          "name": "dust",
          "type": "uint256"
        }
      ],
      "name": "CollateralDustUpdated",
      "type": "event"
    },
    {
      "anonymous": false,
      "inputs": [
        {
          "indexed": true,
          "internalType": "bytes32",
          "name": "productHash",
          "type": "bytes32"
        },
        {
          "indexed": false,
          "internalType": "uint256",
          "name": "timeToExpiry",
          "type": "uint256"
        },
        {
          "indexed": false,
          "internalType": "uint256",
          "name": "value",
          "type": "uint256"
        }
      ],
      "name": "MaxPriceAdded",
      "type": "event"
    },
    {
      "anonymous": false,
      "inputs": [
        {
          "indexed": true,
          "internalType": "bytes32",
          "name": "productHash",
          "type": "bytes32"
        },
        {
          "indexed": false,
          "internalType": "uint256",
          "name": "timeToExpiry",
          "type": "uint256"
        },
        {
          "indexed": false,
          "internalType": "uint256",
          "name": "oldValue",
          "type": "uint256"
        },
        {
          "indexed": false,
          "internalType": "uint256",
          "name": "newValue",
          "type": "uint256"
        }
      ],
      "name": "MaxPriceUpdated",
      "type": "event"
    },
    {
      "anonymous": false,
      "inputs": [
        {
          "indexed": false,
          "internalType": "uint256",
          "name": "oracleDeviation",
          "type": "uint256"
        }
      ],
      "name": "OracleDeviationUpdated",
      "type": "event"
    },
    {
      "anonymous": false,
      "inputs": [
        {
          "indexed": true,
          "internalType": "address",
          "name": "previousOwner",
          "type": "address"
        },
        {
          "indexed": true,
          "internalType": "address",
          "name": "newOwner",
          "type": "address"
        }
      ],
      "name": "OwnershipTransferred",
      "type": "event"
    },
    {
      "anonymous": false,
      "inputs": [
        {
          "indexed": true,
          "internalType": "bytes32",
          "name": "product",
          "type": "bytes32"
        },
        {
          "indexed": false,
          "internalType": "uint256",
          "name": "spotShock",
          "type": "uint256"
        }
      ],
      "name": "SpotShockUpdated",
      "type": "event"
    },
    {
      "anonymous": false,
      "inputs": [
        {
          "indexed": true,
          "internalType": "bytes32",
          "name": "productHash",
          "type": "bytes32"
        },
        {
          "indexed": false,
          "internalType": "uint256",
          "name": "timeToExpiry",
          "type": "uint256"
        }
      ],
      "name": "TimeToExpiryAdded",
      "type": "event"
    },
    {
      "inputs": [],
      "name": "AUCTION_TIME",
      "outputs": [
        {
          "internalType": "uint256",
          "name": "",
          "type": "uint256"
        }
      ],
      "stateMutability": "view",
      "type": "function"
    },
    {
      "inputs": [
        {
          "internalType": "address",
          "name": "_collateral",
          "type": "address"
        }
      ],
      "name": "getCollateralCap",
      "outputs": [
        {
          "internalType": "uint256",
          "name": "",
          "type": "uint256"
        }
      ],
      "stateMutability": "view",
      "type": "function"
    },
    {
      "inputs": [
        {
          "internalType": "address",
          "name": "_collateral",
          "type": "address"
        }
      ],
      "name": "getCollateralDust",
      "outputs": [
        {
          "internalType": "uint256",
          "name": "",
          "type": "uint256"
        }
      ],
      "stateMutability": "view",
      "type": "function"
    },
    {
      "inputs": [
        {
          "components": [
            {
              "internalType": "address[]",
              "name": "shortOtokens",
              "type": "address[]"
            },
            {
              "internalType": "address[]",
              "name": "longOtokens",
              "type": "address[]"
            },
            {
              "internalType": "address[]",
              "name": "collateralAssets",
              "type": "address[]"
            },
            {
              "internalType": "uint256[]",
              "name": "shortAmounts",
              "type": "uint256[]"
            },
            {
              "internalType": "uint256[]",
              "name": "longAmounts",
              "type": "uint256[]"
            },
            {
              "internalType": "uint256[]",
              "name": "collateralAmounts",
              "type": "uint256[]"
            }
          ],
          "internalType": "struct MarginVault.Vault",
          "name": "_vault",
          "type": "tuple"
        },
        {
          "internalType": "uint256",
          "name": "_vaultType",
          "type": "uint256"
        }
      ],
      "name": "getExcessCollateral",
      "outputs": [
        {
          "internalType": "uint256",
          "name": "",
          "type": "uint256"
        },
        {
          "internalType": "bool",
          "name": "",
          "type": "bool"
        }
      ],
      "stateMutability": "view",
      "type": "function"
    },
    {
      "inputs": [
        {
          "internalType": "address",
          "name": "_otoken",
          "type": "address"
        }
      ],
      "name": "getExpiredPayoutRate",
      "outputs": [
        {
          "internalType": "uint256",
          "name": "",
          "type": "uint256"
        }
      ],
      "stateMutability": "view",
      "type": "function"
    },
    {
      "inputs": [
        {
          "components": [
            {
              "internalType": "address[]",
              "name": "shortOtokens",
              "type": "address[]"
            },
            {
              "internalType": "address[]",
              "name": "longOtokens",
              "type": "address[]"
            },
            {
              "internalType": "address[]",
              "name": "collateralAssets",
              "type": "address[]"
            },
            {
              "internalType": "uint256[]",
              "name": "shortAmounts",
              "type": "uint256[]"
            },
            {
              "internalType": "uint256[]",
              "name": "longAmounts",
              "type": "uint256[]"
            },
            {
              "internalType": "uint256[]",
              "name": "collateralAmounts",
              "type": "uint256[]"
            }
          ],
          "internalType": "struct MarginVault.Vault",
          "name": "_vault",
          "type": "tuple"
        },
        {
          "internalType": "uint256",
          "name": "_vaultType",
          "type": "uint256"
        }
      ],
      "name": "getMarginRequired",
      "outputs": [
        {
          "components": [
            {
              "internalType": "int256",
              "name": "value",
              "type": "int256"
            }
          ],
          "internalType": "struct FixedPointInt256.FixedPointInt",
          "name": "",
          "type": "tuple"
        },
        {
          "components": [
            {
              "internalType": "int256",
              "name": "value",
              "type": "int256"
            }
          ],
          "internalType": "struct FixedPointInt256.FixedPointInt",
          "name": "",
          "type": "tuple"
        }
      ],
      "stateMutability": "view",
      "type": "function"
    },
    {
      "inputs": [
        {
          "internalType": "address",
          "name": "_underlying",
          "type": "address"
        },
        {
          "internalType": "address",
          "name": "_strike",
          "type": "address"
        },
        {
          "internalType": "address",
          "name": "_collateral",
          "type": "address"
        },
        {
          "internalType": "bool",
          "name": "_isPut",
          "type": "bool"
        },
        {
          "internalType": "uint256",
          "name": "_timeToExpiry",
          "type": "uint256"
        }
      ],
      "name": "getMaxPrice",
      "outputs": [
        {
          "internalType": "uint256",
          "name": "",
          "type": "uint256"
        }
      ],
      "stateMutability": "view",
      "type": "function"
    },
    {
      "inputs": [
        {
          "internalType": "address",
          "name": "_underlying",
          "type": "address"
        },
        {
          "internalType": "address",
          "name": "_strike",
          "type": "address"
        },
        {
          "internalType": "address",
          "name": "_collateral",
          "type": "address"
        },
        {
          "internalType": "uint256",
          "name": "_shortAmount",
          "type": "uint256"
        },
        {
          "internalType": "uint256",
          "name": "_strikePrice",
          "type": "uint256"
        },
        {
          "internalType": "uint256",
          "name": "_underlyingPrice",
          "type": "uint256"
        },
        {
          "internalType": "uint256",
          "name": "_shortExpiryTimestamp",
          "type": "uint256"
        },
        {
          "internalType": "uint256",
          "name": "_collateralDecimals",
          "type": "uint256"
        },
        {
          "internalType": "bool",
          "name": "_isPut",
          "type": "bool"
        }
      ],
      "name": "getNakedMarginRequired",
      "outputs": [
        {
          "internalType": "uint256",
          "name": "",
          "type": "uint256"
        }
      ],
      "stateMutability": "view",
      "type": "function"
    },
    {
      "inputs": [],
      "name": "getOracleDeviation",
      "outputs": [
        {
          "internalType": "uint256",
          "name": "",
          "type": "uint256"
        }
      ],
      "stateMutability": "view",
      "type": "function"
    },
    {
      "inputs": [
        {
          "internalType": "address",
          "name": "_underlying",
          "type": "address"
        },
        {
          "internalType": "address",
          "name": "_strike",
          "type": "address"
        },
        {
          "internalType": "address",
          "name": "_collateral",
          "type": "address"
        },
        {
          "internalType": "bool",
          "name": "_isPut",
          "type": "bool"
        }
      ],
      "name": "getSpotShock",
      "outputs": [
        {
          "internalType": "uint256",
          "name": "",
          "type": "uint256"
        }
      ],
      "stateMutability": "view",
      "type": "function"
    },
    {
      "inputs": [
        {
          "internalType": "address",
          "name": "_underlying",
          "type": "address"
        },
        {
          "internalType": "address",
          "name": "_strike",
          "type": "address"
        },
        {
          "internalType": "address",
          "name": "_collateral",
          "type": "address"
        },
        {
          "internalType": "bool",
          "name": "_isPut",
          "type": "bool"
        }
      ],
      "name": "getTimesToExpiry",
      "outputs": [
        {
          "internalType": "uint256[]",
          "name": "",
          "type": "uint256[]"
        }
      ],
      "stateMutability": "view",
      "type": "function"
    },
    {
      "inputs": [
        {
          "components": [
            {
              "internalType": "address[]",
              "name": "shortOtokens",
              "type": "address[]"
            },
            {
              "internalType": "address[]",
              "name": "longOtokens",
              "type": "address[]"
            },
            {
              "internalType": "address[]",
              "name": "collateralAssets",
              "type": "address[]"
            },
            {
              "internalType": "uint256[]",
              "name": "shortAmounts",
              "type": "uint256[]"
            },
            {
              "internalType": "uint256[]",
              "name": "longAmounts",
              "type": "uint256[]"
            },
            {
              "internalType": "uint256[]",
              "name": "collateralAmounts",
              "type": "uint256[]"
            }
          ],
          "internalType": "struct MarginVault.Vault",
          "name": "_vault",
          "type": "tuple"
        },
        {
          "internalType": "uint256",
          "name": "_vaultType",
          "type": "uint256"
        },
        {
          "internalType": "uint256",
          "name": "_vaultLatestUpdate",
          "type": "uint256"
        },
        {
          "internalType": "uint256",
          "name": "_roundId",
          "type": "uint256"
        }
      ],
      "name": "isLiquidatable",
      "outputs": [
        {
          "internalType": "bool",
          "name": "",
          "type": "bool"
        },
        {
          "internalType": "uint256",
          "name": "",
          "type": "uint256"
        },
        {
          "internalType": "uint256",
          "name": "",
          "type": "uint256"
        }
      ],
      "stateMutability": "view",
      "type": "function"
    },
    {
      "inputs": [],
      "name": "oracle",
      "outputs": [
        {
          "internalType": "contract OracleInterface",
          "name": "",
          "type": "address"
        }
      ],
      "stateMutability": "view",
      "type": "function"
    },
    {
      "inputs": [],
      "name": "owner",
      "outputs": [
        {
          "internalType": "address",
          "name": "",
          "type": "address"
        }
      ],
      "stateMutability": "view",
      "type": "function"
    },
    {
      "inputs": [],
      "name": "renounceOwnership",
      "outputs": [],
      "stateMutability": "nonpayable",
      "type": "function"
    },
    {
      "inputs": [
        {
          "internalType": "address",
          "name": "_collateral",
          "type": "address"
        },
        {
          "internalType": "uint256",
          "name": "_cap",
          "type": "uint256"
        }
      ],
      "name": "setCollateralCap",
      "outputs": [],
      "stateMutability": "nonpayable",
      "type": "function"
    },
    {
      "inputs": [
        {
          "internalType": "address",
          "name": "_collateral",
          "type": "address"
        },
        {
          "internalType": "uint256",
          "name": "_dust",
          "type": "uint256"
        }
      ],
      "name": "setCollateralDust",
      "outputs": [],
      "stateMutability": "nonpayable",
      "type": "function"
    },
    {
      "inputs": [
        {
          "internalType": "uint256",
          "name": "_deviation",
          "type": "uint256"
        }
      ],
      "name": "setOracleDeviation",
      "outputs": [],
      "stateMutability": "nonpayable",
      "type": "function"
    },
    {
      "inputs": [
        {
          "internalType": "address",
          "name": "_underlying",
          "type": "address"
        },
        {
          "internalType": "address",
          "name": "_strike",
          "type": "address"
        },
        {
          "internalType": "address",
          "name": "_collateral",
          "type": "address"
        },
        {
          "internalType": "bool",
          "name": "_isPut",
          "type": "bool"
        },
        {
          "internalType": "uint256",
          "name": "_shockValue",
          "type": "uint256"
        }
      ],
      "name": "setSpotShock",
      "outputs": [],
      "stateMutability": "nonpayable",
      "type": "function"
    },
    {
      "inputs": [
        {
          "internalType": "address",
          "name": "_underlying",
          "type": "address"
        },
        {
          "internalType": "address",
          "name": "_strike",
          "type": "address"
        },
        {
          "internalType": "address",
          "name": "_collateral",
          "type": "address"
        },
        {
          "internalType": "bool",
          "name": "_isPut",
          "type": "bool"
        },
        {
          "internalType": "uint256[]",
          "name": "_timesToExpiry",
          "type": "uint256[]"
        },
        {
          "internalType": "uint256[]",
          "name": "_values",
          "type": "uint256[]"
        }
      ],
      "name": "setUpperBoundValues",
      "outputs": [],
      "stateMutability": "nonpayable",
      "type": "function"
    },
    {
      "inputs": [
        {
          "internalType": "address",
          "name": "newOwner",
          "type": "address"
        }
      ],
      "name": "transferOwnership",
      "outputs": [],
      "stateMutability": "nonpayable",
      "type": "function"
    },
    {
      "inputs": [
        {
          "internalType": "address",
          "name": "_underlying",
          "type": "address"
        },
        {
          "internalType": "address",
          "name": "_strike",
          "type": "address"
        },
        {
          "internalType": "address",
          "name": "_collateral",
          "type": "address"
        },
        {
          "internalType": "bool",
          "name": "_isPut",
          "type": "bool"
        },
        {
          "internalType": "uint256",
          "name": "_timeToExpiry",
          "type": "uint256"
        },
        {
          "internalType": "uint256",
          "name": "_value",
          "type": "uint256"
        }
      ],
      "name": "updateUpperBoundValue",
      "outputs": [],
      "stateMutability": "nonpayable",
      "type": "function"
    }
  ],
  "transactionHash": "0x4bbb1a22e9fe9a788fc39f034adcb18df71e29b62ba16bd3b0518bf4fc475a71",
  "args": [
    "0xa513E6E4b8f2a923D98304ec87F64353C4D5C853"
  ],
  "solcInputHash": "afe0a13fb4545fb36ed029d51d030119",
  "bytecode": "0x60806040526200001d600060086200010860201b620011eb1760201c565b516002553480156200002e57600080fd5b50604051620047fa380380620047fa833981016040819052620000519162000387565b6000620000666001600160e01b036200020616565b600080546001600160a01b0319166001600160a01b0383169081178255604051929350917f8be0079c531659141344cd1fd0a4f28419497f9722a3daafe3b4186f6b6457e0908290a3506001600160a01b038116620000e25760405162461bcd60e51b8152600401620000d99062000489565b60405180910390fd5b600880546001600160a01b0319166001600160a01b0392909216919091179055620004d1565b6200011262000374565b6200011c62000374565b601b8314156200015157604051806020016040528062000147866200020a60201b620012ab1760201c565b90529050620001fd565b601b831115620001c357600062000178601b856200023660201b620012d41790919060201c565b90506040518060200160405280620001b7620001a684600a0a896200028060201b620013161790919060201c565b6200020a60201b620012ab1760201c565b815250915050620001fd565b600083601b0390506040518060200160405280620001f7620001a684600a0a89620002ca60201b620013581790919060201c565b90529150505b90505b92915050565b3390565b6000600160ff1b8210620002325760405162461bcd60e51b8152600401620000d99062000406565b5090565b6000620001fd83836040518060400160405280601e81526020017f536166654d6174683a207375627472616374696f6e206f766572666c6f7700008152506200030a60201b60201c565b6000620001fd83836040518060400160405280601a81526020017f536166654d6174683a206469766973696f6e206279207a65726f0000000000008152506200033960201b60201c565b600082620002db5750600062000200565b82820282848281620002e957fe5b0414620001fd5760405162461bcd60e51b8152600401620000d99062000448565b60008184841115620003315760405162461bcd60e51b8152600401620000d99190620003b0565b505050900390565b600081836200035d5760405162461bcd60e51b8152600401620000d99190620003b0565b5060008385816200036a57fe5b0495945050505050565b6040518060200160405280600081525090565b60006020828403121562000399578081fd5b81516001600160a01b0381168114620001fd578182fd5b6000602080835283518082850152825b81811015620003de57858101830151858201604001528201620003c0565b81811115620003f05783604083870101525b50601f01601f1916929092016040019392505050565b60208082526022908201527f4669786564506f696e74496e743235363a206f7574206f6620696e742072616e604082015261676560f01b606082015260800190565b60208082526021908201527f536166654d6174683a206d756c7469706c69636174696f6e206f766572666c6f6040820152607760f81b606082015260800190565b60208082526028908201527f4d617267696e43616c63756c61746f723a20696e76616c6964206f7261636c65604082015267206164647265737360c01b606082015260800190565b61431980620004e16000396000f3fe608060405234801561001057600080fd5b50600436106101425760003560e01c80638da5cb5b116100b8578063b682bcf81161007c578063b682bcf81461029a578063c73547e3146102ad578063cd43fbfb146102c0578063dc1b3f00146102e1578063e592301a146102f4578063f2fde38b146102fc57610142565b80638da5cb5b146102425780639953d7e71461024a5780639a783d111461025d578063a6c5690714610270578063b29d5ee81461029257610142565b80636ccb95061161010a5780636ccb9506146101d7578063715018a6146101ea5780637ad7f800146101f45780637dc0d1d0146102075780637f519b721461021c5780638aab8fa51461022f57610142565b8063053fe57c146101475780630b0509fb14610171578063463459001461019157806347840930146101a457806347d438a5146101b7575b600080fd5b61015a6101553660046133ea565b61030f565b604051610168929190614229565b60405180910390f35b61018461017f366004613331565b61034a565b6040516101689190614239565b61018461019f3660046130dc565b6103c5565b6101846101b23660046130c0565b6103ef565b6101ca6101c53660046130dc565b610594565b604051610168919061359e565b6101846101e53660046130c0565b61060c565b6101f2610627565b005b6101f2610202366004613251565b6106a6565b61020f6107a7565b6040516101689190613522565b6101f261022a366004613137565b6107b6565b6101f261023d3660046131ee565b610a8d565b61020f610b46565b6101846102583660046130c0565b610b55565b6101f261026b3660046133bf565b610b70565b61028361027e36600461342d565b610c1c565b604051610168939291906135e2565b610184610ec5565b6101f26102a83660046133bf565b610ecb565b6101f26102bb36600461347f565b610f6b565b6102d36102ce3660046133ea565b610fe0565b604051610168929190614242565b6101846102ef3660046131ee565b6110fa565b61018461112f565b6101f261030a3660046130c0565b611135565b610317612d96565b61031f612d96565b610327612da9565b6103318585611392565b905061033d85826117ad565b92509250505b9250929050565b6000806103598b8b8b86611cd5565b9050610363612d96565b61036e8960086111eb565b9050610378612d96565b6103838960086111eb565b905061038d612d96565b6103988960086111eb565b90506103b36103ab858584868d8c611d0e565b886000611e94565b9e9d5050505050505050505050505050565b6000806103d486868686611cd5565b6000908152600760205260409020549150505b949350505050565b60006001600160a01b0382166104205760405162461bcd60e51b81526004016104179061378b565b60405180910390fd5b6000829050600080600080600080866001600160a01b031663af0968fc6040518163ffffffff1660e01b815260040160c06040518083038186803b15801561046757600080fd5b505afa15801561047b573d6000803e3d6000fd5b505050506040513d601f19601f8201168201806040525081019061049f91906132be565b955095509550955095509550814210156104cb5760405162461bcd60e51b8152600401610417906137d2565b6104d3612d96565b6104e08686858786611f67565b90506104ea612d96565b6104f682878a87611fc8565b90506000886001600160a01b031663313ce5676040518163ffffffff1660e01b815260040160206040518083038186803b15801561053357600080fd5b505afa158015610547573d6000803e3d6000fd5b505050506040513d601f19601f8201168201806040525081019061056b9190613501565b60ff1690506105828282600163ffffffff611e9416565b9a50505050505050505050505b919050565b606060006105a486868686611cd5565b60008181526005602090815260409182902080548351818402810184019094528084529394509192908301828280156105fc57602002820191906000526020600020905b8154815260200190600101908083116105e8575b5050505050915050949350505050565b6001600160a01b031660009081526003602052604090205490565b61062f612154565b6000546001600160a01b0390811691161461065c5760405162461bcd60e51b815260040161041790613d7b565b600080546040516001600160a01b03909116907f8be0079c531659141344cd1fd0a4f28419497f9722a3daafe3b4186f6b6457e0908390a3600080546001600160a01b0319169055565b6106ae612154565b6000546001600160a01b039081169116146106db5760405162461bcd60e51b815260040161041790613d7b565b600081116106fb5760405162461bcd60e51b815260040161041790613b87565b600061070987878787611cd5565b6000818152600660209081526040808320878452909152902054909150806107435760405162461bcd60e51b815260040161041790613f55565b6000828152600660209081526040808320878452909152908190208490555182907f39bab32d3b88604bdfbf6e8c3b1aaaf9bb6013da4fd5206dee9e3b00ee6f2cf99061079590879085908890614260565b60405180910390a25050505050505050565b6008546001600160a01b031681565b6107be612154565b6000546001600160a01b039081169116146107eb5760405162461bcd60e51b815260040161041790613d7b565b826108085760405162461bcd60e51b81526004016104179061386d565b8281146108275760405162461bcd60e51b8152600401610417906139d8565b600061083589898989611cd5565b6000818152600560205260409020805491925090158061089057508054819061086590600163ffffffff6112d416565b8154811061086f57fe5b90600052602060002001548686600081811061088757fe5b90506020020135115b6108ac5760405162461bcd60e51b815260040161041790613fa2565b60005b85811015610a8057856108c982600163ffffffff61215816565b10156109225786866108e283600163ffffffff61215816565b8181106108eb57fe5b905060200201358787838181106108fe57fe5b90506020020135106109225760405162461bcd60e51b815260040161041790613e5e565b600085858381811061093057fe5b90506020020135116109545760405162461bcd60e51b81526004016104179061381a565b84848281811061096057fe5b9050602002013560066000858152602001908152602001600020600089898581811061098857fe5b90506020020135815260200190815260200160002081905550818787838181106109ae57fe5b83546001810185556000948552602094859020919094029290920135919092015550827fcaae9881bd3ac6f531c9e6021f1f873b93a83648e348624eef8f9ba9757fcb628888848181106109fe57fe5b90506020020135604051610a129190614239565b60405180910390a2827fcbb8d688de73727385afee9d53a2771ae5fe45293ff6de0ba46b201ab29df115888884818110610a4857fe5b90506020020135878785818110610a5b57fe5b90506020020135604051610a70929190614252565b60405180910390a26001016108af565b5050505050505050505050565b610a95612154565b6000546001600160a01b03908116911614610ac25760405162461bcd60e51b815260040161041790613d7b565b60008111610ae25760405162461bcd60e51b8152600401610417906140e6565b6000610af086868686611cd5565b600081815260076020526040908190208490555190915081907f78d22b4a9e4e0e1db30e7762696456ca380dc80efc59f416a299b97213b6d31690610b36908590614239565b60405180910390a2505050505050565b6000546001600160a01b031690565b6001600160a01b031660009081526004602052604090205490565b610b78612154565b6000546001600160a01b03908116911614610ba55760405162461bcd60e51b815260040161041790613d7b565b60008111610bc55760405162461bcd60e51b815260040161041790613902565b6001600160a01b03821660008181526003602052604090819020839055517f8ef429e6cec4339c5f0187fb930764fb967114bf09bc8bb06a552ba32923fd8690610c10908490614239565b60405180910390a25050565b600080600085600114610c415760405162461bcd60e51b815260040161041790613ea7565b610c49612da9565b610c538888611392565b9050806102200151610c6f575060009250829150819050610ebb565b8060e001514210610c925760405162461bcd60e51b815260040161041790613ce6565b6008548151604051631b85462d60e01b815260009283926001600160a01b0390911691631b85462d91610cc9918b90600401613579565b604080518083038186803b158015610ce057600080fd5b505afa158015610cf4573d6000803e3d6000fd5b505050506040513d601f19601f82011682018060405250810190610d1891906134de565b91509150878111610d3b5760405162461bcd60e51b81526004016104179061371f565b610d43612e45565b6040518060600160405280610d718d60600151600081518110610d6257fe5b602002602001015160086111eb565b8152602001610d858660c0015160086111eb565b8152602001610d958560086111eb565b81525090506000610db9856000015186602001518760400151886101c00151611cd5565b9050610dc3612d96565b610dea8d60a00151600081518110610dd757fe5b60200260200101518761018001516111eb565b9050610df4612d96565b610e17838560000151866040015187602001518b60e001518c6101c00151611d0e565b9050610e29818363ffffffff61217d16565b15610e45575060009850889750879650610ebb95505050505050565b610e4d612d96565b610e65856020015186604001518a6101c00151612185565b90506000610e8a8487600001518489604001518b8e61018001518f6101c0015161220c565b6040998a01516001600160a01b031660009081526003602052999099205460019c50989a5097985050505050505050505b9450945094915050565b60015490565b610ed3612154565b6000546001600160a01b03908116911614610f005760405162461bcd60e51b815260040161041790613d7b565b60008111610f205760405162461bcd60e51b815260040161041790614045565b6001600160a01b03821660008181526004602052604090819020839055517f1514f5c7d8107a1307f260cc1b55b81c75a5ca4d924f64febff06d2b134ab33b90610c10908490614239565b610f73612154565b6000546001600160a01b03908116911614610fa05760405162461bcd60e51b815260040161041790613d7b565b60018190556040517fe44c6dd1fc3826ad24b81f17cf04849cedd368e002a52e89a845d14d3474e20a90610fd5908390614239565b60405180910390a150565b600080610feb612da9565b610ff58585611392565b90506110018582612354565b8061022001511580156110175750806102000151155b1561105757600081610240015161102f576000611049565b8560a0015160008151811061104057fe5b60200260200101515b935060019250610343915050565b61105f612d96565b611067612d96565b61107187846117ad565b9150915061107d612d96565b61108d838363ffffffff61248b16565b604080516020810190915260025481529091506000906110b490839063ffffffff6124bd16565b905060008561020001516110cd578561010001516110d4565b8561016001515b905060006110e984838563ffffffff611e9416565b9b929a509198505050505050505050565b60008061110987878787611cd5565b600090815260066020908152604080832086845290915290205491505095945050505050565b610e1081565b61113d612154565b6000546001600160a01b0390811691161461116a5760405162461bcd60e51b815260040161041790613d7b565b6001600160a01b0381166111905760405162461bcd60e51b8152600401610417906138bc565b600080546040516001600160a01b03808516939216917f8be0079c531659141344cd1fd0a4f28419497f9722a3daafe3b4186f6b6457e091a3600080546001600160a01b0319166001600160a01b0392909216919091179055565b6111f3612d96565b6111fb612d96565b601b831415611221576040518060200160405280611218866112ab565b905290506112a2565b601b83111561127357600061123d84601b63ffffffff6112d416565b9050604051806020016040528061126861126384600a0a8961131690919063ffffffff16565b6112ab565b8152509150506112a2565b6040805160208101909152601b849003908061129c61126388600a86900a63ffffffff61135816565b90529150505b90505b92915050565b6000600160ff1b82106112d05760405162461bcd60e51b81526004016104179061395f565b5090565b60006112a283836040518060400160405280601e81526020017f536166654d6174683a207375627472616374696f6e206f766572666c6f7700008152506124c5565b60006112a283836040518060400160405280601a81526020017f536166654d6174683a206469766973696f6e206279207a65726f0000000000008152506124f1565b600082611367575060006112a5565b8282028284828161137457fe5b04146112a25760405162461bcd60e51b815260040161041790613d3a565b61139a612da9565b6113a2612da9565b50604080516102608101825260008082526020808301829052928201819052606082018190526080820181905260a0820181905260c0820181905260e08201819052610100820181905261012082018190526101408201819052610160820181905261018082018190526101a082018190526101c082018190526101e08201819052610200820181905261022082018190526102408201529084015161144790612528565b1515610200820152835161145a90612528565b1515610220820152604084015161147090612528565b15156102408201526101a08101839052610200810151156115c6576000846020015160008151811061149e57fe5b60200260200101519050806001600160a01b031663af0968fc6040518163ffffffff1660e01b815260040160c06040518083038186803b1580156114e157600080fd5b505afa1580156114f5573d6000803e3d6000fd5b505050506040513d601f19601f8201168201806040525081019061151991906132be565b15156101e08801526101408701526101208601526001600160a01b03908116608086015290811660608501521660a083018190526040805163313ce56760e01b8152905163313ce56791600480820192602092909190829003018186803b15801561158357600080fd5b505afa158015611597573d6000803e3d6000fd5b505050506040513d601f19601f820116820180604052508101906115bb9190613501565b60ff16610160830152505b8061022001511561170957600084600001516000815181106115e457fe5b60200260200101519050806001600160a01b031663af0968fc6040518163ffffffff1660e01b815260040160c06040518083038186803b15801561162757600080fd5b505afa15801561163b573d6000803e3d6000fd5b505050506040513d601f19601f8201168201806040525081019061165f91906132be565b15156101c088015260e087015260c08601526001600160a01b039081166020808701919091529181168552919091166040808501829052805163313ce56760e01b81529051919263313ce56792600480840193829003018186803b1580156116c657600080fd5b505afa1580156116da573d6000803e3d6000fd5b505050506040513d601f19601f820116820180604052508101906116fe9190613501565b60ff16610100830152505b806102400151156112a257836040015160008151811061172557fe5b60200260200101516001600160a01b031663313ce5676040518163ffffffff1660e01b815260040160206040518083038186803b15801561176557600080fd5b505afa158015611779573d6000803e3d6000fd5b505050506040513d601f19601f8201168201806040525081019061179d9190613501565b60ff166101808201529392505050565b6117b5612d96565b6117bd612d96565b6117c5612d96565b8361022001516117e457604080516020810190915260025481526117f8565b6117f88560600151600081518110610d6257fe5b9050611802612d96565b8461020001516118215760408051602081019091526002548152611835565b6118358660800151600081518110610d6257fe5b905061183f612d96565b85610240015161185e5760408051602081019091526002548152611872565b6118728760a00151600081518110610dd757fe5b905061187c612d96565b86610220015161189b57604080516020810190915260025481526118aa565b6118aa8760c0015160086111eb565b90506118b4612e77565b6040518060a001604052808961022001516118d35789606001516118d6565b89515b6001600160a01b031681526020018961022001516118f8578960a001516118fe565b89604001515b6001600160a01b03168152602001896102200151611920578960800151611926565b89602001515b6001600160a01b031681526020018961022001516119495789610140015161194f565b8960e001515b815260200189610220015161196957896101e00151611970565b896101c001515b151581525090508060600151421015611bff57876101a0015160011415611b5857611999612d96565b6040808a01516001600160a01b03166000908152600360205220546101808a01516119c491906111eb565b90506119ce612d96565b6040808b01516001600160a01b03166000908152600460205220546101808b01516119f991906111eb565b60408051602081019091526002548152909150611a1d90869063ffffffff61256616565b15611a7a57611a32858363ffffffff61256616565b611a4e5760405162461bcd60e51b815260040161041790613b04565b611a5e858263ffffffff61217d16565b611a7a5760405162461bcd60e51b81526004016104179061369c565b611a82612d96565b6008548b516040516341976e0960e01b8152611b0c926001600160a01b0316916341976e0991611ab59190600401613522565b60206040518083038186803b158015611acd57600080fd5b505afa158015611ae1573d6000803e3d6000fd5b505050506040513d601f19601f82011682018060405250810190611b059190613497565b60086111eb565b90506000611b2d8c600001518d602001518e604001518f6101c00151611cd5565b905086611b46828b858a8a606001518b60800151611d0e565b9a509a50505050505050505050610343565b611b60612d96565b886102000151611b7f5760408051602081019091526002548152611b8f565b611b8f89610120015160086111eb565b9050816080015115611bd557611ba3612d96565b611baf8787868561256d565b905084611bc582856040015186602001516125ba565b9850985050505050505050610343565b611bdd612d96565b611be98787868561271f565b905084611bc582856000015186602001516125ba565b611c07612d96565b886102200151611c265760408051602081019091526002548152611c47565b611c4789600001518a602001518b60e001518c60c001518660800151611f67565b9050611c51612d96565b896102000151611c705760408051602081019091526002548152611c93565b611c938a606001518b608001518c61014001518d61012001518760800151611f67565b9050611c9d612d96565b611ca9888885856127bb565b905085611cc482866040015187602001518860600151611fc8565b995099505050505050505050610343565b600084848484604051602001611cee9493929190613536565b604051602081830303815290604052805190602001209050949350505050565b611d16612d96565b611d1e612d96565b611d2888856127e6565b9050611d32612d96565b50604080516020808201835260008b8152600790915291909120548152611d57612d96565b611d5f612d96565b611d67612d96565b8615611df957611d8689611d81868d63ffffffff61295116565b612998565b9250611dc0611dab611d9e868d63ffffffff61295116565b8b9063ffffffff61248b16565b604080516020810190915260025481526129b6565b9150611df28b611de684611dda898863ffffffff61295116565b9063ffffffff6129cd16565b9063ffffffff61295116565b9050611e85565b611e01612d96565b611e186b033b2e3c9fd0803ce8000000601b6111eb565b9050611e3e81611d818d611e328e8a63ffffffff61295116565b9063ffffffff6129f616565b9350611e67611dab611e5a8d611e328e8a63ffffffff61295116565b839063ffffffff61248b16565b9250611e818c611de685611dda8a8963ffffffff61295116565b9150505b9b9a5050505050505050505050565b600080601b841415611eb2578451611eab90612a2c565b9050611f5d565b601b841115611eeb576000601b85039050611ee381600a0a611ed78860000151612a2c565b9063ffffffff61135816565b915050611f5d565b601b849003600084611f28576000611f1983600a0a611f0d8a60000151612a2c565b9063ffffffff612a4816565b90508015611f2657600191505b505b611f5881611f4c84600a0a611f408b60000151612a2c565b9063ffffffff61131616565b9063ffffffff61215816565b925050505b90505b9392505050565b611f6f612d96565b611f77612d96565b611f828460086111eb565b9050611f8c612d96565b611f98600160006111eb565b9050611fa2612d96565b611fae828a8a8a611fc8565b9050611fbb838287612185565b9998505050505050505050565b611fd0612d96565b826001600160a01b0316846001600160a01b03161415611ff15750836103e7565b6008546040516301957f8160e01b815260009182916001600160a01b03909116906301957f81906120289089908890600401613560565b604080518083038186803b15801561203f57600080fd5b505afa158015612053573d6000803e3d6000fd5b505050506040513d601f19601f8201168201806040525081019061207791906134af565b6008546040516301957f8160e01b815292945090925060009182916001600160a01b0316906301957f81906120b2908a908a90600401613560565b604080518083038186803b1580156120c957600080fd5b505afa1580156120dd573d6000803e3d6000fd5b505050506040513d601f19601f8201168201806040525081019061210191906134af565b9150915082801561210f5750805b61212b5760405162461bcd60e51b815260040161041790613c36565b611fbb6121398360086111eb565b611e326121478760086111eb565b8c9063ffffffff61295116565b3390565b6000828201838110156112a25760405162461bcd60e51b8152600401610417906139a1565b519051131590565b61218d612d96565b81156121d3576121a3848463ffffffff61256616565b6121bc57604080516020810190915260025481526121cc565b6121cc848463ffffffff61248b16565b9050611f60565b6121e3838563ffffffff61256616565b6121fc5760408051602081019091526002548152611f5d565b611f5d838563ffffffff61248b16565b6000612216612d96565b61221e612d96565b61222e8a8a63ffffffff6129f616565b90506000612242428863ffffffff6112d416565b9050610e10811061225557819250612342565b61225d612d96565b612265612d96565b612272600154601b6111eb565b905086156122a45761229d611dab612290838d63ffffffff61295116565b8d9063ffffffff61248b16565b91506122ce565b6122cb8a611e32611dab6122be858463ffffffff61295116565b8f9063ffffffff61248b16565b91505b506122d7612d96565b6122e28360126111eb565b90506122ec612d96565b6122f9610e1060126111eb565b905061232361231682611e3285611de68a8963ffffffff61248b16565b849063ffffffff6129cd16565b9550612335868663ffffffff61256616565b1561233e578495505b5050505b611e858387600163ffffffff611e9416565b815151600110156123775760405162461bcd60e51b815260040161041790613ff0565b6001826020015151111561239d5760405162461bcd60e51b815260040161041790613a1e565b600182604001515111156123c35760405162461bcd60e51b815260040161041790613ef8565b606082015151825151146123e95760405162461bcd60e51b815260040161041790613ab3565b816080015151826020015151146124125760405162461bcd60e51b815260040161041790614130565b8160a00151518260400151511461243b5760405162461bcd60e51b815260040161041790614180565b6124458282612a8a565b6124615760405162461bcd60e51b815260040161041790613c89565b61246b8282612bc4565b6124875760405162461bcd60e51b815260040161041790613df7565b5050565b612493612d96565b60408051602081019091528251845182916124b4919063ffffffff612c6416565b90529392505050565b519051121590565b600081848411156124e95760405162461bcd60e51b815260040161041791906135fa565b505050900390565b600081836125125760405162461bcd60e51b815260040161041791906135fa565b50600083858161251e57fe5b0495945050505050565b60008082511180156112a5575060006001600160a01b03168260008151811061254d57fe5b60200260200101516001600160a01b0316141592915050565b5190511390565b612575612d96565b6125b1611dab6125956125888888612998565b859063ffffffff61295116565b6125a5888763ffffffff61295116565b9063ffffffff61248b16565b95945050505050565b6125c2612d96565b816001600160a01b0316836001600160a01b031614156125e3575082611f60565b6008546040516341976e0960e01b81526000916001600160a01b0316906341976e0990612614908790600401613522565b60206040518083038186803b15801561262c57600080fd5b505afa158015612640573d6000803e3d6000fd5b505050506040513d601f19601f820116820180604052508101906126649190613497565b6008546040516341976e0960e01b81529192506000916001600160a01b03909116906341976e099061269a908790600401613522565b60206040518083038186803b1580156126b257600080fd5b505afa1580156126c6573d6000803e3d6000fd5b505050506040513d601f19601f820116820180604052508101906126ea9190613497565b90506127156126fa8260086111eb565b611e326127088560086111eb565b899063ffffffff61295116565b9695505050505050565b612727612d96565b6040805160208101909152600254815261274890839063ffffffff612caa16565b1561276757612760611dab868663ffffffff61248b16565b90506103e7565b61276f612d96565b61278783611e3288611de6838963ffffffff61248b16565b9050612791612d96565b6127a4611dab888863ffffffff61248b16565b90506127b082826129b6565b979650505050505050565b6127c3612d96565b6125b16127d6838663ffffffff61295116565b6125a5858863ffffffff61295116565b6127ee612d96565b60008381526005602090815260409182902080548351818402810184019094528084526060939283018282801561284457602002820191906000526020600020905b815481526020019060010190808311612830575b5050505050905080516000141561286d5760405162461bcd60e51b81526004016104179061364d565b600061287f844263ffffffff6112d416565b90508082612898600185516112d490919063ffffffff16565b815181106128a257fe5b602002602001015110156128c85760405162461bcd60e51b8152600401610417906141d6565b60005b82518160ff1610156129485781838260ff16815181106128e757fe5b60200260200101511061294057600086815260066020526040812084516129369290869060ff861690811061291857fe5b6020026020010151815260200190815260200160002054601b6111eb565b93505050506112a5565b6001016128cb565b50505092915050565b612959612d96565b60408051602081019091528251845182916b033b2e3c9fd0803ce8000000916129879163ffffffff612cb116565b8161298e57fe5b0590529392505050565b6129a0612d96565b81518351126129af57816112a2565b5090919050565b6129be612d96565b81518351136129af57816112a2565b6129d5612d96565b60408051602081019091528251845182916124b4919063ffffffff612d1c16565b6129fe612d96565b604080516020810190915282518451829190612987906b033b2e3c9fd0803ce800000063ffffffff612cb116565b600080821215612a415781600003905061058f565b508061058f565b60006112a283836040518060400160405280601881526020017f536166654d6174683a206d6f64756c6f206279207a65726f0000000000000000815250612d62565b6000816101a0015160011415612abd5781610200015115612abd5760405162461bcd60e51b815260040161041790613bd9565b8161020001511580612ad25750816102200151155b15612adf575060016112a5565b82518051600090612aec57fe5b60200260200101516001600160a01b03168360200151600081518110612b0e57fe5b60200260200101516001600160a01b031614158015612b46575081600001516001600160a01b031682606001516001600160a01b0316145b8015612b6b575081602001516001600160a01b031682608001516001600160a01b0316145b8015612b90575081604001516001600160a01b03168260a001516001600160a01b0316145b8015612ba457508160e00151826101400151145b80156112a25750816101c001511515826101e00151151514905092915050565b610240810151600090600190612bdb5790506112a5565b82610220015115612c1e578360400151600081518110612bf757fe5b60200260200101516001600160a01b031683604001516001600160a01b03161490506112a2565b826102000151156112a2578360400151600081518110612c3a57fe5b60200260200101516001600160a01b03168360a001516001600160a01b0316149050905092915050565b6000818303818312801590612c795750838113155b80612c8e5750600083128015612c8e57508381135b6112a25760405162461bcd60e51b8152600401610417906140a2565b5190511490565b600082612cc0575060006112a5565b82600019148015612cd45750600160ff1b82145b15612cf15760405162461bcd60e51b815260040161041790613db0565b82820282848281612cfe57fe5b05146112a25760405162461bcd60e51b815260040161041790613db0565b6000828201818312801590612d315750838112155b80612d465750600083128015612d4657508381125b6112a25760405162461bcd60e51b815260040161041790613a72565b60008183612d835760405162461bcd60e51b815260040161041791906135fa565b50828481612d8d57fe5b06949350505050565b6040518060200160405280600081525090565b6040805161026081018252600080825260208201819052918101829052606081018290526080810182905260a0810182905260c0810182905260e08101829052610100810182905261012081018290526101408101829052610160810182905261018081018290526101a081018290526101c081018290526101e081018290526102008101829052610220810182905261024081019190915290565b6040518060600160405280612e58612d96565b8152602001612e65612d96565b8152602001612e72612d96565b905290565b6040805160a08101825260008082526020820181905291810182905260608101829052608081019190915290565b600082601f830112612eb5578081fd5b8135612ec8612ec38261429d565b614276565b818152915060208083019084810181840286018201871015612ee957600080fd5b60005b84811015612f11578135612eff816142bd565b84529282019290820190600101612eec565b505050505092915050565b60008083601f840112612f2d578081fd5b50813567ffffffffffffffff811115612f44578182fd5b602083019150836020808302850101111561034357600080fd5b600082601f830112612f6e578081fd5b8135612f7c612ec38261429d565b818152915060208083019084810181840286018201871015612f9d57600080fd5b60005b84811015612f1157813584529282019290820190600101612fa0565b600060c08284031215612fcd578081fd5b612fd760c0614276565b9050813567ffffffffffffffff80821115612ff157600080fd5b612ffd85838601612ea5565b8352602084013591508082111561301357600080fd5b61301f85838601612ea5565b6020840152604084013591508082111561303857600080fd5b61304485838601612ea5565b6040840152606084013591508082111561305d57600080fd5b61306985838601612f5e565b6060840152608084013591508082111561308257600080fd5b61308e85838601612f5e565b608084015260a08401359150808211156130a757600080fd5b506130b484828501612f5e565b60a08301525092915050565b6000602082840312156130d1578081fd5b81356112a2816142bd565b600080600080608085870312156130f1578283fd5b84356130fc816142bd565b9350602085013561310c816142bd565b9250604085013561311c816142bd565b9150606085013561312c816142d5565b939692955090935050565b60008060008060008060008060c0898b031215613152578384fd5b883561315d816142bd565b9750602089013561316d816142bd565b9650604089013561317d816142bd565b9550606089013561318d816142d5565b9450608089013567ffffffffffffffff808211156131a9578586fd5b6131b58c838d01612f1c565b909650945060a08b01359150808211156131cd578384fd5b506131da8b828c01612f1c565b999c989b5096995094979396929594505050565b600080600080600060a08688031215613205578081fd5b8535613210816142bd565b94506020860135613220816142bd565b93506040860135613230816142bd565b92506060860135613240816142d5565b949793965091946080013592915050565b60008060008060008060c08789031215613269578182fd5b8635613274816142bd565b95506020870135613284816142bd565b94506040870135613294816142bd565b935060608701356132a4816142d5565b9598949750929560808101359460a0909101359350915050565b60008060008060008060c087890312156132d6578182fd5b86516132e1816142bd565b60208801519096506132f2816142bd565b6040880151909550613303816142bd565b80945050606087015192506080870151915060a0870151613323816142d5565b809150509295509295509295565b60008060008060008060008060006101208a8c03121561334f578283fd5b893561335a816142bd565b985060208a013561336a816142bd565b975060408a013561337a816142bd565b965060608a0135955060808a0135945060a08a0135935060c08a0135925060e08a013591506101008a01356133ae816142d5565b809150509295985092959850929598565b600080604083850312156133d1578182fd5b82356133dc816142bd565b946020939093013593505050565b600080604083850312156133fc578182fd5b823567ffffffffffffffff811115613412578283fd5b61341e85828601612fbc565b95602094909401359450505050565b60008060008060808587031215613442578182fd5b843567ffffffffffffffff811115613458578283fd5b61346487828801612fbc565b97602087013597506040870135966060013595509350505050565b600060208284031215613490578081fd5b5035919050565b6000602082840312156134a8578081fd5b5051919050565b600080604083850312156134c1578182fd5b8251915060208301516134d3816142d5565b809150509250929050565b600080604083850312156134f0578182fd5b505080516020909101519092909150565b600060208284031215613512578081fd5b815160ff811681146112a2578182fd5b6001600160a01b0391909116815260200190565b6001600160a01b039485168152928416602084015292166040820152901515606082015260800190565b6001600160a01b03929092168252602082015260400190565b6001600160a01b0392909216825269ffffffffffffffffffff16602082015260400190565b6020808252825182820181905260009190848201906040850190845b818110156135d6578351835292840192918401916001016135ba565b50909695505050505050565b92151583526020830191909152604082015260600190565b6000602080835283518082850152825b818110156136265785810183015185820160400152820161360a565b818111156136375783604083870101525b50601f01601f1916929092016040019392505050565b6020808252602f908201527f4d617267696e43616c63756c61746f723a2070726f647563742068617665206e60408201526e6f206578706972792076616c75657360881b606082015260800190565b60208082526057908201527f4d617267696e43616c63756c61746f723a206e616b6564206d617267696e207660408201527f61756c742073686f756c64206861766520636f6c6c61746572616c20616d6f7560608201527f6e74206c657373207468616e2063617020616d6f756e74000000000000000000608082015260a00190565b60208082526046908201527f4d617267696e43616c63756c61746f723a2061756374696f6e2074696d65737460408201527f616d702073686f756c6420626520706f7374207661756c74206c61746573742060608201526575706461746560d01b608082015260a00190565b60208082526027908201527f4d617267696e43616c63756c61746f723a20496e76616c696420746f6b656e206040820152666164647265737360c81b606082015260800190565b60208082526028908201527f4d617267696e43616c63756c61746f723a204f746f6b656e206e6f74206578706040820152671a5c9959081e595d60c21b606082015260800190565b60208082526033908201527f4d617267696e43616c63756c61746f723a206e6f2065787069727920757070656040820152721c88189bdd5b99081d985b1d5948199bdd5b99606a1b606082015260800190565b6020808252602f908201527f4d617267696e43616c63756c61746f723a20696e76616c69642074696d65732060408201526e746f2065787069727920617272617960881b606082015260800190565b60208082526026908201527f4f776e61626c653a206e6577206f776e657220697320746865207a65726f206160408201526564647265737360d01b606082015260800190565b60208082526039908201527f4d617267696e43616c63756c61746f723a206475737420616d6f756e7420736860408201527f6f756c642062652067726561746572207468616e207a65726f00000000000000606082015260800190565b60208082526022908201527f4669786564506f696e74496e743235363a206f7574206f6620696e742072616e604082015261676560f01b606082015260800190565b6020808252601b908201527f536166654d6174683a206164646974696f6e206f766572666c6f770000000000604082015260600190565b60208082526026908201527f4d617267696e43616c63756c61746f723a20696e76616c69642076616c75657360408201526520617272617960d01b606082015260800190565b60208082526034908201527f4d617267696e43616c63756c61746f723a20546f6f206d616e79206c6f6e67206040820152731bdd1bdad95b9cc81a5b881d1a19481d985d5b1d60621b606082015260800190565b60208082526021908201527f5369676e6564536166654d6174683a206164646974696f6e206f766572666c6f6040820152607760f81b606082015260800190565b60208082526031908201527f4d617267696e43616c63756c61746f723a2053686f727420617373657420616e6040820152700c840c2dadeeadce840dad2e6dac2e8c6d607b1b606082015260800190565b6020808252605b908201527f4d617267696e43616c63756c61746f723a206e616b6564206d617267696e207660408201527f61756c742073686f756c64206861766520636f6c6c61746572616c20616d6f7560608201527f6e742067726561746572207468616e206475737420616d6f756e740000000000608082015260a00190565b60208082526032908201527f4d617267696e43616c63756c61746f723a20696e76616c6964206f7074696f6e60408201527120757070657220626f756e642076616c756560701b606082015260800190565b6020808252603c908201527f4d617267696e43616c63756c61746f723a206e616b6564206d617267696e207660408201527f61756c742063616e6e6f742068617665206c6f6e67206f746f6b656e00000000606082015260800190565b60208082526033908201527f4d617267696e43616c63756c61746f723a2070726963652061742065787069726040820152721e481b9bdd08199a5b985b1a5e9959081e595d606a1b606082015260800190565b6020808252603b908201527f4d617267696e43616c63756c61746f723a206c6f6e67206173736574206e6f7460408201527f206d617267696e61626c6520666f722073686f72742061737365740000000000606082015260800190565b60208082526034908201527f4d617267696e43616c63756c61746f723a2063616e206e6f74206c697175696460408201527330ba329032bc3834b932b2103837b9b4ba34b7b760611b606082015260800190565b60208082526021908201527f536166654d6174683a206d756c7469706c69636174696f6e206f766572666c6f6040820152607760f81b606082015260800190565b6020808252818101527f4f776e61626c653a2063616c6c6572206973206e6f7420746865206f776e6572604082015260600190565b60208082526027908201527f5369676e6564536166654d6174683a206d756c7469706c69636174696f6e206f604082015266766572666c6f7760c81b606082015260800190565b60208082526041908201527f4d617267696e43616c63756c61746f723a20636f6c6c61746572616c2061737360408201527f6574206e6f74206d617267696e61626c6520666f722073686f727420617373656060820152601d60fa1b608082015260a00190565b60208082526029908201527f4d617267696e43616c63756c61746f723a2074696d652073686f756c642062656040820152681034b71037b93232b960b91b606082015260800190565b60208082526031908201527f4d617267696e43616c63756c61746f723a20696e76616c6964207661756c74206040820152707479706520746f206c697175696461746560781b606082015260800190565b60208082526039908201527f4d617267696e43616c63756c61746f723a20546f6f206d616e7920636f6c6c6160408201527f746572616c2061737365747320696e20746865207661756c7400000000000000606082015260800190565b6020808252602d908201527f4d617267696e43616c63756c61746f723a20757070657220626f756e6420766160408201526c1b1d59481b9bdd08199bdd5b99609a1b606082015260800190565b6020808252602e908201527f4d617267696e43616c63756c61746f723a20657870697279206172726179206960408201526d39903737ba1034b71037b93232b960911b606082015260800190565b60208082526035908201527f4d617267696e43616c63756c61746f723a20546f6f206d616e792073686f7274604082015274081bdd1bdad95b9cc81a5b881d1a19481d985d5b1d605a1b606082015260800190565b60208082526038908201527f4d617267696e43616c63756c61746f723a2063617020616d6f756e742073686f60408201527f756c642062652067726561746572207468616e207a65726f0000000000000000606082015260800190565b60208082526024908201527f5369676e6564536166654d6174683a207375627472616374696f6e206f766572604082015263666c6f7760e01b606082015260800190565b6020808252602a908201527f4d617267696e43616c63756c61746f723a20696e76616c69642073706f742073604082015269686f636b2076616c756560b01b606082015260800190565b60208082526030908201527f4d617267696e43616c63756c61746f723a204c6f6e6720617373657420616e6460408201526f040c2dadeeadce840dad2e6dac2e8c6d60831b606082015260800190565b60208082526036908201527f4d617267696e43616c63756c61746f723a20436f6c6c61746572616c206173736040820152750cae840c2dcc840c2dadeeadce840dad2e6dac2e8c6d60531b606082015260800190565b60208082526033908201527f4d617267696e43616c63756c61746f723a2070726f647563742068617665206e6040820152726f20757070657220626f756e642076616c756560681b606082015260800190565b9151825251602082015260400190565b90815260200190565b9182521515602082015260400190565b918252602082015260400190565b9283526020830191909152604082015260600190565b60405181810167ffffffffffffffff8111828210171561429557600080fd5b604052919050565b600067ffffffffffffffff8211156142b3578081fd5b5060209081020190565b6001600160a01b03811681146142d257600080fd5b50565b80151581146142d257600080fdfea26469706673582212209e3b96415b955f6ee077e8e010b592e4c60e27d8a7c432b5c6d49db884228b3464736f6c634300060a0033",
  "devdoc": {
    "author": "Opyn",
    "methods": {
      "constructor": {
        "params": {
          "_oracle": "oracle module address"
        }
      },
      "getCollateralCap(address)": {
        "params": {
          "_collateral": "collateral asset address"
        },
        "returns": {
          "_0": "cap amount"
        }
      },
      "getCollateralDust(address)": {
        "params": {
          "_collateral": "collateral asset address"
        },
        "returns": {
          "_0": "dust amount"
        }
      },
      "getExcessCollateral((address[],address[],address[],uint256[],uint256[],uint256[]),uint256)": {
        "details": "return amount is denominated in the collateral asset for the oToken in the vault, or the collateral asset in the vault",
        "params": {
          "_vault": "theoretical vault that needs to be checked",
          "_vaultType": "vault type (0 for spread/max loss, 1 for naked margin)"
        },
        "returns": {
          "_0": "excessCollateral the amount by which the margin is above or below the required amount",
          "_1": "isExcess True if there is excess margin in the vault, False if there is a deficit of margin in the vault if True, collateral can be taken out from the vault, if False, additional collateral needs to be added to vault"
        }
      },
      "getExpiredPayoutRate(address)": {
        "params": {
          "_otoken": "oToken address"
        },
        "returns": {
          "_0": "how much collateral can be taken out by 1 otoken unit, scaled by 1e8, or how much collateral can be taken out for 1 (1e8) oToken"
        }
      },
      "getMarginRequired((address[],address[],address[],uint256[],uint256[],uint256[]),uint256)": {
        "params": {
          "_vault": "theoretical vault that needs to be checked",
          "_vaultType": "vault type"
        },
        "returns": {
          "_0": "the vault collateral amount, and marginRequired the minimal amount of collateral needed in a vault, scaled to 1e27"
        }
      },
      "getMaxPrice(address,address,address,bool,uint256)": {
        "params": {
          "_collateral": "otoken collateral asset",
          "_isPut": "otoken type",
          "_strike": "otoken strike asset",
          "_timeToExpiry": "option time to expiry timestamp",
          "_underlying": "otoken underlying asset"
        },
        "returns": {
          "_0": "option upper bound value (1e27)"
        }
      },
      "getNakedMarginRequired(address,address,address,uint256,uint256,uint256,uint256,uint256,bool)": {
        "details": "_shortAmount, _strikePrice and _underlyingPrice should be scaled by 1e8",
        "params": {
          "_collateral": "collateral asset address",
          "_collateralDecimals": "otoken collateral asset decimals",
          "_isPut": "otoken type",
          "_shortAmount": "amount of short otoken",
          "_shortExpiryTimestamp": "otoken expiry timestamp",
          "_strike": "strike asset address",
          "_strikePrice": "otoken strike price",
          "_underlying": "underlying asset address",
          "_underlyingPrice": "otoken underlying price"
        },
        "returns": {
          "_0": "collateral required for a naked margin vault, in collateral asset decimals"
        }
      },
      "getOracleDeviation()": {
        "returns": {
          "_0": "oracle deviation value (1e27)"
        }
      },
      "getSpotShock(address,address,address,bool)": {
        "params": {
          "_collateral": "otoken collateral asset",
          "_isPut": "otoken type",
          "_strike": "otoken strike asset",
          "_underlying": "otoken underlying asset"
        },
        "returns": {
          "_0": "_shockValue spot shock value (1e27)"
        }
      },
      "getTimesToExpiry(address,address,address,bool)": {
        "params": {
          "_collateral": "otoken collateral asset",
          "_isPut": "otoken type",
          "_strike": "otoken strike asset",
          "_underlying": "otoken underlying asset"
        },
        "returns": {
          "_0": "array of times to expiry"
        }
      },
      "isLiquidatable((address[],address[],address[],uint256[],uint256[],uint256[]),uint256,uint256,uint256)": {
        "details": "if the vault is of type 0, the function will revert",
        "params": {
          "_roundId": "chainlink round id",
          "_vault": "vault struct",
          "_vaultLatestUpdate": "vault latest update (timestamp when latest vault state change happened)",
          "_vaultType": "vault type (0 for max loss/spread and 1 for naked margin vault)"
        },
        "returns": {
          "_0": "isLiquidatable, true if vault is undercollateralized, liquidation price and collateral dust amount"
        }
      },
      "owner()": {
        "details": "Returns the address of the current owner."
      },
      "renounceOwnership()": {
        "details": "Leaves the contract without owner. It will not be possible to call `onlyOwner` functions anymore. Can only be called by the current owner. NOTE: Renouncing ownership will leave the contract without an owner, thereby removing any functionality that is only available to the owner."
      },
      "setCollateralCap(address,uint256)": {
        "details": "can only be called by owner",
        "params": {
          "_cap": "cap amount, should be scaled by collateral asset decimals",
          "_collateral": "collateral asset address"
        }
      },
      "setCollateralDust(address,uint256)": {
        "details": "can only be called by owner",
        "params": {
          "_collateral": "collateral asset address",
          "_dust": "dust amount, should be scaled by collateral asset decimals"
        }
      },
      "setOracleDeviation(uint256)": {
        "details": "can only be called by owner",
        "params": {
          "_deviation": "deviation value"
        }
      },
      "setSpotShock(address,address,address,bool,uint256)": {
        "details": "can only be called by owner",
        "params": {
          "_collateral": "otoken collateral asset",
          "_isPut": "otoken type",
          "_shockValue": "spot shock value",
          "_strike": "otoken strike asset",
          "_underlying": "otoken underlying asset"
        }
      },
      "setUpperBoundValues(address,address,address,bool,uint256[],uint256[])": {
        "details": "can only be called by owner",
        "params": {
          "_collateral": "otoken collateral asset",
          "_isPut": "otoken type",
          "_strike": "otoken strike asset",
          "_timesToExpiry": "array of times to expiry timestamp",
          "_underlying": "otoken underlying asset",
          "_values": "upper bound values array"
        }
      },
      "transferOwnership(address)": {
        "details": "Transfers ownership of the contract to a new account (`newOwner`). Can only be called by the current owner."
      },
      "updateUpperBoundValue(address,address,address,bool,uint256,uint256)": {
        "details": "can only be called by owner",
        "params": {
          "_collateral": "otoken collateral asset",
          "_isPut": "otoken type",
          "_strike": "otoken strike asset",
          "_timeToExpiry": "option time to expiry timestamp",
          "_underlying": "otoken underlying asset",
          "_value": "upper bound value"
        }
      }
    },
    "stateVariables": {
      "BASE": {
        "details": "decimals used by strike price and oracle price"
      },
      "SCALING_FACTOR": {
        "details": "decimals option upper bound value, spot shock and oracle deviation"
      },
      "ZERO": {
        "details": "FixedPoint 0"
      },
      "cap": {
        "details": "mapping to store cap amount per options collateral asset (scaled by collateral asset decimals)"
      },
      "dust": {
        "details": "mapping to store dust amount per option collateral asset (scaled by collateral asset decimals)"
      },
      "maxPriceAtTimeToExpiry": {
        "details": "mapping to store option upper bound value at specific time to expiry for a given product (1e27)"
      },
      "oracle": {
        "details": "oracle module"
      },
      "oracleDeviation": {
        "details": "oracle deviation value (1e27)"
      },
      "spotShock": {
        "details": "mapping to store shock value for spot price of a given product (1e27)"
      },
      "timesToExpiryForProduct": {
        "details": "mapping to store array of time to expiry for a given product"
      }
    },
    "title": "MarginCalculator"
  },
  "userdoc": {
    "methods": {
      "AUCTION_TIME()": {
        "notice": "auction length"
      },
      "constructor": "constructor",
      "getCollateralCap(address)": {
        "notice": "get cap amount for collateral asset"
      },
      "getCollateralDust(address)": {
        "notice": "get dust amount for collateral asset"
      },
      "getExcessCollateral((address[],address[],address[],uint256[],uint256[],uint256[]),uint256)": {
        "notice": "returns the amount of collateral that can be removed from an actual or a theoretical vault"
      },
      "getExpiredPayoutRate(address)": {
        "notice": "return the cash value of an expired oToken, denominated in collateral"
      },
      "getMarginRequired((address[],address[],address[],uint256[],uint256[],uint256[]),uint256)": {
        "notice": "calculate required collateral margin for a vault"
      },
      "getMaxPrice(address,address,address,bool,uint256)": {
        "notice": "get option upper bound value for specific time to expiry"
      },
      "getNakedMarginRequired(address,address,address,uint256,uint256,uint256,uint256,uint256,bool)": {
        "notice": "return the collateral required for naked margin vault, in collateral asset decimals"
      },
      "getOracleDeviation()": {
        "notice": "get oracle deviation"
      },
      "getSpotShock(address,address,address,bool)": {
        "notice": "get spot shock value"
      },
      "getTimesToExpiry(address,address,address,bool)": {
        "notice": "get times to expiry for a specific product"
      },
      "isLiquidatable((address[],address[],address[],uint256[],uint256[],uint256[]),uint256,uint256,uint256)": {
        "notice": "check if a specific vault is undercollateralized at a specific chainlink round"
      },
      "setCollateralCap(address,uint256)": {
        "notice": "set cap amount for collateral asset used in naked margin"
      },
      "setCollateralDust(address,uint256)": {
        "notice": "set dust amount for collateral asset"
      },
      "setOracleDeviation(uint256)": {
        "notice": "set oracle deviation (1e27)"
      },
      "setSpotShock(address,address,address,bool,uint256)": {
        "notice": "set spot shock value, scaled to 1e27"
      },
      "setUpperBoundValues(address,address,address,bool,uint256[],uint256[])": {
        "notice": "set product upper bound values"
      },
      "updateUpperBoundValue(address,address,address,bool,uint256,uint256)": {
        "notice": "set option upper bound value for specific time to expiry (1e27)"
      }
    },
    "notice": "Calculator module that checks if a given vault is valid, calculates margin requirements, and settlement proceeds"
  },
  "storageLayout": {
    "storage": [
      {
        "astId": 13312,
        "contract": "contracts/GammaProtocol/core/MarginCalculator.sol:MarginCalculator",
        "label": "_owner",
        "offset": 0,
        "slot": "0",
        "type": "t_address"
      },
      {
        "astId": 3027,
        "contract": "contracts/GammaProtocol/core/MarginCalculator.sol:MarginCalculator",
        "label": "oracleDeviation",
        "offset": 0,
        "slot": "1",
        "type": "t_uint256"
      },
      {
        "astId": 3035,
        "contract": "contracts/GammaProtocol/core/MarginCalculator.sol:MarginCalculator",
        "label": "ZERO",
        "offset": 0,
        "slot": "2",
        "type": "t_struct(FixedPointInt)10174_storage"
      },
      {
        "astId": 3040,
        "contract": "contracts/GammaProtocol/core/MarginCalculator.sol:MarginCalculator",
        "label": "dust",
        "offset": 0,
        "slot": "3",
        "type": "t_mapping(t_address,t_uint256)"
      },
      {
        "astId": 3045,
        "contract": "contracts/GammaProtocol/core/MarginCalculator.sol:MarginCalculator",
        "label": "cap",
        "offset": 0,
        "slot": "4",
        "type": "t_mapping(t_address,t_uint256)"
      },
      {
        "astId": 3051,
        "contract": "contracts/GammaProtocol/core/MarginCalculator.sol:MarginCalculator",
        "label": "timesToExpiryForProduct",
        "offset": 0,
        "slot": "5",
        "type": "t_mapping(t_bytes32,t_array(t_uint256)dyn_storage)"
      },
      {
        "astId": 3058,
        "contract": "contracts/GammaProtocol/core/MarginCalculator.sol:MarginCalculator",
        "label": "maxPriceAtTimeToExpiry",
        "offset": 0,
        "slot": "6",
        "type": "t_mapping(t_bytes32,t_mapping(t_uint256,t_uint256))"
      },
      {
        "astId": 3063,
        "contract": "contracts/GammaProtocol/core/MarginCalculator.sol:MarginCalculator",
        "label": "spotShock",
        "offset": 0,
        "slot": "7",
        "type": "t_mapping(t_bytes32,t_uint256)"
      },
      {
        "astId": 3066,
        "contract": "contracts/GammaProtocol/core/MarginCalculator.sol:MarginCalculator",
        "label": "oracle",
        "offset": 0,
        "slot": "8",
        "type": "t_contract(OracleInterface)9290"
      }
    ],
    "types": {
      "t_address": {
        "encoding": "inplace",
        "label": "address",
        "numberOfBytes": "20"
      },
      "t_array(t_uint256)dyn_storage": {
        "base": "t_uint256",
        "encoding": "dynamic_array",
        "label": "uint256[]",
        "numberOfBytes": "32"
      },
      "t_bytes32": {
        "encoding": "inplace",
        "label": "bytes32",
        "numberOfBytes": "32"
      },
      "t_contract(OracleInterface)9290": {
        "encoding": "inplace",
        "label": "contract OracleInterface",
        "numberOfBytes": "20"
      },
      "t_int256": {
        "encoding": "inplace",
        "label": "int256",
        "numberOfBytes": "32"
      },
      "t_mapping(t_address,t_uint256)": {
        "encoding": "mapping",
        "key": "t_address",
        "label": "mapping(address => uint256)",
        "numberOfBytes": "32",
        "value": "t_uint256"
      },
      "t_mapping(t_bytes32,t_array(t_uint256)dyn_storage)": {
        "encoding": "mapping",
        "key": "t_bytes32",
        "label": "mapping(bytes32 => uint256[])",
        "numberOfBytes": "32",
        "value": "t_array(t_uint256)dyn_storage"
      },
      "t_mapping(t_bytes32,t_mapping(t_uint256,t_uint256))": {
        "encoding": "mapping",
        "key": "t_bytes32",
        "label": "mapping(bytes32 => mapping(uint256 => uint256))",
        "numberOfBytes": "32",
        "value": "t_mapping(t_uint256,t_uint256)"
      },
      "t_mapping(t_bytes32,t_uint256)": {
        "encoding": "mapping",
        "key": "t_bytes32",
        "label": "mapping(bytes32 => uint256)",
        "numberOfBytes": "32",
        "value": "t_uint256"
      },
      "t_mapping(t_uint256,t_uint256)": {
        "encoding": "mapping",
        "key": "t_uint256",
        "label": "mapping(uint256 => uint256)",
        "numberOfBytes": "32",
        "value": "t_uint256"
      },
      "t_struct(FixedPointInt)10174_storage": {
        "encoding": "inplace",
        "label": "struct FixedPointInt256.FixedPointInt",
        "members": [
          {
            "astId": 10173,
            "contract": "contracts/GammaProtocol/core/MarginCalculator.sol:MarginCalculator",
            "label": "value",
            "offset": 0,
            "slot": "0",
            "type": "t_int256"
          }
        ],
        "numberOfBytes": "32"
      },
      "t_uint256": {
        "encoding": "inplace",
        "label": "uint256",
        "numberOfBytes": "32"
      }
    }
  }
}